:020000040800F2
:10000000D0050020AD010008153B00083D1F000889
:10001000113B0008510600083150000800000000A4
:10002000000000000000000000000000453C000847
:10003000A506000800000000193B0008493C000824
:10004000C7010008C7010008C7010008C701000870
:10005000C7010008C7010008C7010008C701000860
:10006000C7010008C7010008C7010008C701000850
:10007000C7010008C7010008C7010008C701000840
:10008000C7010008C7010008C70100080000000000
:10009000000000000000000000000000C701000890
:1000A000C7010008C7010008C7010008C701000810
:1000B000C7010008C7010008C7010008C701000800
:1000C000C7010008C7010008C7010008C7010008F0
:1000D000C7010008C7010008C701000800000000B0
:1000E000C7010008C7010008C701000800000000A0
:1000F000000000000000000000000000C701000830
:1001000000000000C7010008C7010008C70100087F
:1001100000000000000000000000000000000000DF
:10012000C7010008C701000855060008C7010008FC
:10013000C7010008000000000000000000000000EF
:10014000000000000000000000000000C7010008DF
:10015000C7010008C7010008C7010008C70100085F
:10016000C7010008C70100080000000000000000EF
:10017000000000000000000000000000000000007F
:1001800000000000C701000800000000000000009F
:10019000C7010008C7010008DFF80CD000F040FAE2
:1001A00000480047E55F0008D0050020064880476A
:1001B00006480047FEE7FEE7FEE7FEE7FEE7FEE74C
:1001C000FEE7FEE7FEE7FEE7013D000899010008B3
:1001D0002DE9F05F0546002092469B46884606467C
:1001E000814640241BE0284641464746224600F00F
:1001F00059F953465A46C01A914110D31146184630
:10020000224600F040F92D1A67EB01084F462246BE
:100210000120002100F037F917EB00094E41201EA4
:10022000A4F10104DFDC484631462A464346BDE8D6
:10023000F09FD2B201E000F8012B491EFBD27047BB
:100240000022F6E710B513460A4604461946FFF7A2
:10025000F0FF204610BD2DE9FE4F81EA030404F0B3
:10026000004421F0004100944FF0000B23F00043C4
:1002700050EA01045ED052EA03045BD0C3F30A548F
:10028000C1F30A552C44A4F2F3340194A0FB0254A8
:10029000C1F3130141F48011C3F3130343F480133A
:1002A00001FB024400FB034E840A970A44EA81548E
:1002B00047EA8357A4FB076802958D0A05FB07856B
:1002C0004FEA932C04FB0C542705029D4FEA065875
:1002D00047EA1637B5EB08056EEB070C870E920E52
:1002E00047EA811742EA8312A7FB0201B6EB0B0132
:1002F00064EB00042B0D43EA0C335E1844EB1C50F6
:10030000DA465146E7FB0201C5F313044FEA0B330B
:1003100043EA14534FEA0432019C43EA0603A4F172
:100320000C040294009CCDE900B400F0DAF803B0AC
:10033000BDE8F08F00200146F9E730B5041E71F1E9
:10034000000404DB4FF00044404264EB0101141E42
:1003500073F1000405DB1C464FF00043524263EB8F
:100360000403801A994101D3012030BD002030BD23
:1003700030B5041E71F1000404DB4FF0004440422C
:1003800064EB0101141E73F1000405DB1C464FF001
:100390000043524263EB0403101A8B4101D2012047
:1003A00030BD002030BD30B5041E71F1000404DB07
:1003B0004FF00044404264EB0101141E73F100044D
:1003C00005DB1C464FF00043524263EB0403801AE6
:1003D000994101D2012030BD002030BD0EB540F260
:1003E000334102910021CDE900110A460B4600F08D
:1003F00078F803B000BD70B5C1F30A5201F00045B2
:100400000024C1F3130140F2FF3341F480119A42FA
:1004100001DA002070BD40F233439A42A2F2334227
:1004200003DC524200F03EF800E090402C43F1D053
:10043000404270BD00F0004230F000400AD0C10DD3
:1004400001F56071C0F3160042EA0151C20840078D
:100450001143704700200146704730B50B460146F6
:1004600000202022012409E021FA02F59D4205D353
:1004700003FA02F5491B04FA02F52844151EA2F1FD
:100480000102F1DC30BD202A04DB203A00FA02F13F
:10049000002070479140C2F1200320FA03F3194372
:1004A00090407047202A04DB203A21FA02F0002114
:1004B000704721FA02F3D040C2F120029140084374
:1004C0001946704710B5141E73F1000408DA401C79
:1004D00041F1000192185B411A4301D120F0010063
:1004E00010BD2DE9F04D92469B4611B1B1FA81F253
:1004F00002E0B0FA80F220329046FFF7C4FF0446D3
:100500000F4640EA0A0041EA0B0153465A460843A7
:1005100013D0114653EA010019D0C8F140025046E9
:10052000FFF7C0FF05460E46504659464246FFF7C4
:10053000AAFF084305D0012004E020463946BDE863
:10054000F08D0020054346EAE0762C4337430A98B5
:100550006305E40AA0EB08000022FD0A44EA4754C0
:100560000A3002D500200146E9E70105101969416A
:10057000DDE9084500196941BDE8F04DA2E72DE924
:10058000F04D00231A461B1A8A4103DB0020014666
:10059000BDE8F08DC1F30A52C1F3130141F4801597
:1005A0004FF0000BD10702D100186D41521E0027F9
:1005B000044640F2FF11384601EB620A3E4680468F
:1005C000024600204FF48011FFF76CFFC219714101
:1005D000BB1846EB0100B4EB030C75EB000C04D325
:1005E000E41A65EB000517460E46241908F10100D0
:1005F0006D4180463428E3DDF91946EB0600091BFE
:10060000A84103D24FF0FF32134601E00022134607
:100610001BEB070046EB0A51BDE8F04DFFF752BF58
:100620001CB509480090094801900546009C06E069
:10063000E06840F0010394E8070098471034AC42AA
:10064000F6D3FFF7ADFD000088E60008A8E6000835
:10065000FEE7000040F24000C2F2000000F02AB8BD
:100660004EF6FC50CEF20000016821F0807101606E
:10067000016841F08071016041F20000CEF200009B
:10068000016821F001010160016841F00101016090
:100690000021416000BF00BF00BF4068B0FA80F099
:1006A0004009704770470000EFF3108072B600BF3A
:1006B000FEE70000F0B581B004460020009040F253
:1006C0000800C2F200000268D4E9166048F2B513CF
:1006D00037680821C1F64E3381403942A2FB032519
:1006E0000CD0226813685B0708D5136823F0040355
:1006F0001360B160616D41F00101616501218140CC
:10070000394208D022685269120604D5B160616D81
:1007100041F00201616504218140394208D022681C
:100720001268920704D5B160616D41F00401616502
:1007300010218140394215D020680268120711D576
:10074000B16002680168520306D4C90506D4016885
:1007500021F00801016001E008033ED4216C09B1D9
:1007600020468847E16D202000FA01F23A4240D04D
:1007700020680368DB063CD5B26094F83530026827
:10078000052B1AD122F016020260426922F0800283
:100790004261226C0AB9A26C1AB1026822F0080206
:1007A00002603F208840B060012084F83500216D50
:1007B000002084F83400D9BB3FE00168520310D414
:1007C000C90512D4016821F010010160012084F8EC
:1007D0003500002084F8340007E0A16C0029BFD167
:1007E000C0E7080301D4616C00E0E16B09B1204669
:1007F0008847606D08B3606DC00717D0052084F886
:1008000035002068A90A026822F00102026000BFD8
:10081000009A01328A42009202D80268D207F7D1C8
:10082000012084F83500002084F83400E16C21B107
:10083000204601B0BDE8F040084701B0F0BD00001F
:100840002DE9F041044600F087F9C4B105460220C5
:1008500084F835000020216884F83400086820F00E
:100860000100086020680168C9070BD000F074F926
:10087000401B0528F6D90321202203207AE001201D
:10088000BDE8F081016848F23F02CFF21002D4E9DE
:10089000013501EA020ED4E9032143EA0E032B439A
:1008A000D4E9056C1A43D4E907781143314341EA8E
:1008B0000702616A42EA0802042942EA0C0303D1F2
:1008C000D4E90B273A43134303604269042922F019
:1008D000070241EA02012DD1D4E90A5341EA050198
:1008E00043B3BCF5005F08D0BCF1000F12D1022D5C
:1008F00016D0012D07D09DB119E0032D17D8DFE8E0
:1009000005F00B0F0B02A3F1C072B2FA82F252098A
:100910004AB90FE0032D02D2012222B90AE006D122
:10092000C3F3006232B101214022012022E0002203
:10093000002AF8D100F0F8024AF6AB23103ACAF6C2
:10094000AA23A2FB033749F6EC2341613909C0F61B
:100950000003595C40F2FF3398435F2A4FF03F0297
:1009600088BF0430C4E9160102FA01F18160002257
:1009700001210020626584F83510BDE8F081000097
:10098000B0B5044600F0E8F8054640F23400C2F283
:1009900000000078611C18BF044400BF00F0DCF8C0
:1009A000401BA042FAD3B0BD2DE9F04F82B000F158
:1009B0003E4707F1FF77860546EA972741F2000692
:1009C000C4F202060722B04208BF0422042F38BF37
:1009D0003A46002400274FF00009009209E000BFCA
:1009E00009F101090237B9F1100F04F1040400F014
:1009F000A4800D68012202FA09FC15EA0C08EFD068
:100A0000D1F804B00BF0030AAAF10105012D12D8A8
:100A10000322856802FA07FECA6825EA0E05BA4075
:100A20002A4382604268CBF3001522EA0C0205FAE1
:100A300009F52A434260BAF1030F1CD0C2680323B0
:100A40008E6803FA07F5AA43BE403243BAF1020F9B
:100A5000C26010D16FF0030202EA59020244D2F8D8
:100A600020C004F01C050F230E69AB402CEA0303E1
:100A7000AE4033431362026803234E68BB409A437F
:100A800006F00303BB401A4316F4403F0260A7D0B0
:100A9000002243F644030192C4F202031A6843F6AB
:100AA000004E42F480421A601A68C4F2010E02F449
:100AB00080420192019A29F003024FF6084C7244D9
:100AC000CFF6FF7C52F80C3004F00C060F25B54031
:100AD000AB43009D05FA06F6334342F80C30DEF8CE
:100AE00008204B6842EA080643F60C4CDD0258BF6A
:100AF00022EA0806CEF80860C4F2010CDCF80020F7
:100B00009D0242EA080658BF22EA0806CCF80060B7
:100B1000DEF804209D0342EA080658BF22EA0806D0
:100B2000CEF80460DEF80020DB0342EA080658BF76
:100B300022EA0806CEF8006052E702B0BDE8F08F66
:100B40000069084018BF012070470000002A08BF54
:100B5000090481617047000040F2C810C2F2000031
:100B60000068704740F2340040F2C811C2F2000041
:100B7000C2F2000100780A68104408607047000063
:100B800080B543F60040C4F20200016841F40071F0
:100B90000160016841F480610160016841F4807185
:100BA0000160032000F088F80F2000F005F800F045
:100BB0002BF8002080BD0000B0B540F23402C2F234
:100BC000000240F208011278C2F200014FF47A7379
:100BD0000968B3FBF2F20446B1FBF2F1084600F0FB
:100BE000E5FF0F2C4FF001050CD858B94FF0FF303E
:100BF00021460022002500F033F840F23800C2F20E
:100C0000000004602846B0BD82B0002043F64001D9
:100C10000190C4F202014A6842F480424A604A6884
:100C200002F480420192019A0090086840F08050DE
:100C30000860086800F080500090009802B070478B
:100C4000002848BF704700F01F01012202FA01F19D
:100C50004EF200124009CEF2000242F82010704716
:100C600010B54EF60C5CCEF2000CDCF80030C3F38D
:100C7000022E8EF00704042C28BF0424BEF10303C7
:100C80004FF0FF3E0EFA04F438BF0023A143994011
:100C90000EFA03F39A43114300F1604200F00F0390
:100CA000090102F56442043B6344002848BF03F194
:100CB0000C02117010BD00004EF60C51CEF2000176
:100CC0000A684FF6FF031A4060F30A2242F0806080
:100CD00040F0FD7008607047F0B581B004460078C0
:100CE00010F0050F2CD06827C4F2472743F6700692
:100CF0000020C4F202063860FFF72EFF054600BF51
:100D000056F8700C000105D5FFF726FF401B02289E
:100D1000F6D93DE0221D07CA40EA811040EA027080
:100D2000706101203860FFF717FF054656F8700C18
:100D3000000105D4FFF710FF401B0228F6D927E079
:100D40002078800756D543F670060020C4F20206CC
:100D5000009056F8300C47F2000740F0805046F8FB
:100D6000300C56F8300CC4F2000700F080500090B0
:100D70000098386840F480703860FFF7EDFE054653
:100D80003868C00507D4FFF7E7FE401B0228F7D9F3
:100D9000032001B0F0BD306810F4407013D0216919
:100DA00001F4407188420ED0306840F64061C4F2D0
:100DB0004721012220F440700A6000220A6030605E
:100DC0003068C00723D1206956F8681C4FF6FF43EE
:100DD00000F4407221F4F811C0F6FF730340B2F53D
:100DE000407F08BF194346F8681C31686FF31F3015
:100DF000084330602078000706D5207D40F640612A
:100E0000C4F24721C1F8A003002001B0F0BDFFF7F4
:100E1000A3FE054641F2883730688007D3D4FFF738
:100E20009BFE401BB8424FF00300F5D9EDE70000F0
:100E3000002804BF012070472DE9F04143F608085F
:100E4000C4F202080446D8F8F8030D4600F0070083
:100E5000884207D288F8F853D8F8F80300F0070062
:100E6000A84276D12068810717D5410705D5D8F863
:100E7000001041F4E051C8F80010010705D5D8F87A
:100E8000001041F46041C8F80010D8F80010A268C2
:100E900021F0F0011143C8F80010C0073FD1D8F885
:100EA000F80300F00700A84207D988F8F853D8F8EB
:100EB000F80300F00700A8424BD12068410707D58E
:100EC000D8F80010E26821F4E0511143C8F800108E
:100ED000000708D5D8F80000216920F4604040EAF6
:100EE000C100C8F8000000F059F8D8F8001046F228
:100EF000E862C1F30311C0F60002515C40F208023F
:100F000020FA01F140F23800C2F200000068C2F29B
:100F100000021160FFF750FE0020BDE8F08160681C
:100F2000811E022907D258F8081C89015CBF0120E4
:100F3000BDE8F08110E0012807D158F8081C8903AA
:100F40005CBF0120BDE8F08106E058F8081C890765
:100F500002D40120BDE8F081D8F8001021F003018F
:100F60000843C8F80000FFF7F7FD064641F288374E
:100F7000D8F80000616800F00C00B0EB810F8ED053
:100F8000FFF7EAFD801BB842F2D90320BDE8F081EB
:100F900040F20800C2F200000068704710B543F646
:100FA0000404C4F20204606800F00C0008280AD0AF
:100FB000042819BF42F20040C0F2F40047F6400096
:100FC000C0F27D1010BD206821682368490247F6F1
:100FD0004001C0F27D1100F03F02C3F388105CBFF6
:100FE00042F20041C0F2F401A1FB00010023FFF72F
:100FF000EFF821680222C1F3014102EB4101B0FB8D
:10100000F1F010BD002804BF012070472DE9F04128
:1010100082B00446007843F60006C007C4F2020618
:1010200047D0B06800F00C00042808D13068800375
:101030003FD56068E8BB012002B0BDE8F081B06830
:1010400000F00C00082802D170684002EED46568F8
:10105000B5F5A02F0AD0B5F5803F0BD0306820F44D
:1010600080303060306820F4802006E0306840F442
:1010700080203060306840F480303060FFF76CFDD5
:10108000002D054612D000BF3068800311D4FFF751
:1010900063FD401B6428F7D926E100BFFFF75CFD24
:1010A000401B64284FF0030000F2E28030688003A8
:1010B000F4D4207880071BD5B06810F00C0F09D04D
:1010C000B06800F00C00082840F08780706840028B
:1010D00000F183803068800703D5E068012840F084
:1010E0009E803068216920F0F80040EAC10030603D
:1010F0002078000735D42078400748D4A56965B327
:10110000B06800F00C00082840F09E80012D00F02F
:1011100086807068E16900F480028A4240F07F8036
:10112000216A00F03F028A4279D147F6C071626AB3
:101130000140B1EB821F72D1A16A4FF6FF73C90360
:10114000994300F44032A1F580318A4267D1E16AC7
:1011500000F07060B0EB016F61D1002002B0BDE81B
:10116000F0816069002840F20000C4F247205AD0A4
:101170000121C0F8801EFFF7EFFC0546706F800765
:10118000B9D4FFF7E9FC401B0228F7D9ACE0306C7A
:101190005FEAC0080AD400200190306C40F0805013
:1011A0003064306C00F080500190019847F20007E5
:1011B000C4F200073868C00524D4386840F4807051
:1011C0003860FFF7C9FC05463868C0051AD4FFF738
:1011D000C3FC401B0228F7D986E0E068002857D0FE
:1011E0000020C4F2472001210160FFF7B5FC05464D
:1011F000306880073FF575AFFFF7AEFC401B022853
:10120000F6D971E0A568052D56D0012D58D0306F64
:1012100020F001003067306F20F0040053E001201F
:1012200002B0BDE8F0810021C0F8801EFFF794FCF9
:10123000054600BF706F80077FF55DAFFFF78CFC40
:10124000401B0228F6D94FE00027C4F247270020B0
:101250003866FFF781FC022D05460DD1306880010C
:1012600059D5FFF779FC401B02284FF00300F5D950
:1012700002B0BDE8F08100BF306880017FF56DAF3E
:10128000FFF76AFC401B02284FF00300F4D9EFE798
:101290000020C4F2472000210160FFF75DFC0546F5
:1012A000306880077FF524AFFFF756FC401B02280B
:1012B0004FF00300F4D9DBE7306F40F004003067F3
:1012C000306F40F001003067FFF746FC002D054607
:1012D00041F2883713D000BF306F800712D4FFF778
:1012E0003BFC401BB842F7D9032002B0BDE8F081B7
:1012F000FFF732FC401BB8424FF00300B8D8306F04
:101300008007F5D4B8F1000F3FF5F8AE306C20F04F
:1013100080503064F2E604F11C052FCD084340EA0A
:101320008210D9034FF6FF729143A1F5803140EA54
:1013300005600843706001203866FFF70DFC044625
:10134000306880013FF509AFFFF706FC001B02285B
:101350004FF00300F4D98BE7F0B581B068B30446D1
:10136000407F20B900202077204600F077F8022047
:1013700060772068CA21416253214162C1684906F1
:101380001DD4C16841F08001C160FFF7E5FB216811
:10139000C968490647D4054600260427FFF7DCFB49
:1013A000401BB0F57A7F84BF677701262068C0684C
:1013B000400605D4012EF1D102E0012646E00026C8
:1013C000AEBB94E80F004FF6BF768768CFF68F76F6
:1013D00037408760276939436769866839433143F5
:1013E00081600361016941EA02410161C16821F044
:1013F0008001C1608168890618D4C16821F0A0010C
:10140000C160FFF7A9FB05462068C068800620D4AC
:10141000FFF7A2FB401BB0F57A7FF5D90420012627
:10142000607786B904E000260EB9CAE7002656B9EF
:101430002068A169026C22F480220264026C1143CC
:101440000164012060772068FF214162F0B201B0A1
:10145000F0BD0026002EF6D1EAE7000080B586B088
:10146000006842F60001C4F2000188424FF000001B
:10147000CDE90400CDE90200CDE9000001D006B0BD
:1014800080BD022000904FF4807004906846FFF702
:1014900023FC002818BFFFF707F940F63C60C4F2B0
:1014A00047200121016006B080BD000070B538B151
:1014B0000446406A30B10020206104F1140007E0C6
:1014C000012070BD6068B0F5827F03D004F11C007C
:1014D000002101600026A66294F8510020B9204640
:1014E00084F8506000F03CF8022084F8510094E841
:1014F0000F0001F48271056802F4044225F04005F2
:101500000560114403F400622369114403F00202F0
:101510006369114403F00102A369E569114403F40E
:101520000072114405F03802256A114405F080026A
:10153000A56A114305F4005211430160626A042157
:1015400001EA134102F0100211444160C16921F423
:101550000061C1610120666584F85100304670BDAC
:1015600070B586B00446216843F60002C4F200025A
:1015700000209142CDE90400CDE9020001904FD056
:1015800043F20000C4F20100814273D1002643F609
:1015900030000096C4F20200416941F4805141617B
:1015A000416901F48051009100990096016841F071
:1015B00001010160006801A900F00100009000989D
:1015C000E02001900220CDE90206032004900520CE
:1015D00005900020C4F20200FFF7E6F940F2400552
:1015E00046F24040C2F20005C4F202004FF08061B2
:1015F000402285E847004FF480304FF48063C5E90E
:1016000008062846C5E90436C5E90666FFF718F955
:10161000002818BFFFF748F8A564AC6306B070BD9A
:1016200043F630010090C4F202010A6942F480429C
:101630000A610A6902F480420092009A00900A68E6
:1016400042F002020A60096801F00201009100996B
:101650004FF4604101910221CDE902100320049072
:10166000052005900020C4F2020000F5806001A969
:10167000FFF79AF906B070BD2DE9F04381B004463A
:1016800040681D461746B0F5827F0E4602D1A0681D
:1016900000285AD094F85000012803D1022001B04C
:1016A000BDE8F0834FF0010984F85090FFF754FA39
:1016B00094F85110012946D18046002E4FF00100C8
:1016C00018BF002F77D0042084F8510000206065F7
:1016D000A663A787E7872063A086E086A1682064C9
:1016E000B1F5004F606408D12068016821F0400125
:1016F0000160016821F480410160206801684906A9
:1017000003D4016841F040010160E168E08F49B312
:10171000002843D06E1C09E0C068A16B21F8020BC1
:10172000A163E08F0138E087E08FB8B3206881685B
:10173000C907F1D1FFF710FA002EF5D0A0EB080091
:10174000A842F1D328E0022035E0042084F85100BB
:101750002046314632463B46009500F015F901B06F
:10176000BDE8F083D0B16E1C0AE0007BA16B08706D
:10177000A06B0130A063E08F0138E087E08F68B193
:1017800020688168C907F0D1FFF7E6F9002EF5D08F
:10179000A0EB0800A842F1D303200CE02046294624
:1017A000424602F0BBF900281CBF20206065606D36
:1017B000002818BF0120002184F8519084F85010AF
:1017C00001B0BDE8F08300002DE9F04383B004468A
:1017D00090F85000012803D1022003B0BDE8F08347
:1017E0004FF001091D4616460F4684F85090FFF74A
:1017F000B3F994F8511001295BD18046002F4FF0C6
:10180000010018BF002E00F0B680032084F85100BC
:10181000002060652763A686E686A063A087E08730
:10182000A168C4E91000B1F5004F08D12068016833
:1018300021F040010160016841F4804101602068AD
:101840000168490603D4016841F040010160616804
:10185000731EE268B1FA81F1B3FA83F349095B09B7
:10186000B2F5006F41EA030125D131B137F8021B0F
:10187000C1602763E08E0138E086E08E002840D00A
:101880006E1C09E0216B31F8022BC2602163E08EEF
:101890000138E086E08EA0B3206881688907F1D422
:1018A000FFF75AF9002EF5D0A0EB0800A842F1D3BB
:1018B00025E002205FE039B139780173206B0130F7
:1018C0002063E08E0138E086E08ED0B16E1C0AE025
:1018D000216B09780173206B01302063E08E0138A1
:1018E000E086E08E68B1206881688907F0D4FFF750
:1018F00033F9002EF5D0A0EB0800A842F1D3032065
:1019000039E040F20800C2F20000006849F6817137
:10191000C1F25E61A0FB0101480D4FF47A714843AA
:1019200002906068B0F5827F0ED1204680212A4661
:10193000434602F01FF980B1606D40F02000606501
:101940002020606509E000BF029830B1029801389C
:101950000290206880680006F6D4A06838B900209C
:1019600001902068C1680191806801900198606DC4
:10197000002818BF0120002184F8519084F85010ED
:1019800003B0BDE8F08300002DE9F04383B00446C6
:1019900090F85000012803D1022003B0BDE8F08385
:1019A00001201E4615460F4684F85000FFF7D4F874
:1019B00094F85110814601296BD1002F4FF001009E
:1019C00018BF002D00F0AF80002E00F0AC8094F81E
:1019D0005100002104281CBF052084F851006165D6
:1019E000A563E687A6872763E6862068A686216426
:1019F00061640168490603D4016841F04001016057
:101A00006168731EE268B1FA81F1B3FA83F3DDF81D
:101A1000288049095B09B2F5006F41EA030147D10B
:101A200031B137F8021BC1602763E08E0138E086D0
:101A3000012608F1010500BFE08E10B9E08F0028F3
:101A40007AD02068816889070CD5E18E51B1012ECA
:101A500008D1216B002631F8022BC2602163E18E90
:101A60000139E1868168C9070AD0E18F41B1C068B8
:101A7000A16B012621F8020BA163E08F0138E087FA
:101A8000FFF76AF8002DD7D0A0EB09004045D3D36B
:101A900048E06068B0F5827F08D104294FF0020069
:101AA00041D1A16800293FF488AF3CE002203AE030
:101AB00039B139780173206B01302063E08E013831
:101AC000E086012608F10105E08E08B9E08F98B3A1
:101AD0002068816889070DD5E18E59B1012E09D1A1
:101AE000216B002609780173206B01302063E08EA2
:101AF0000138E08620688168C9070BD0E18F49B1C1
:101B0000C068A16B01260870A06B0130A063E08F54
:101B10000138E087FFF720F8002DD5D0A0EB0900B1
:101B20004045D1D30320012184F85110002184F8CD
:101B3000501003B0BDE8F08340F20800C2F200008C
:101B4000006849F68171C1F25E61A0FB0101480D98
:101B50004FF47A71484302906068B0F5827F0FD1EC
:101B60002046802142464B4602F004F888B1606D61
:101B700040F020006065202060650120D3E700BFB1
:101B8000029830B1029801380290206880680006FF
:101B9000F6D4A06800284FF00000C4D1019021685D
:101BA000CA680192896801910199BCE7411E002031
:101BB000B0EB116F1CBF012070474EF21002CEF245
:101BC000000251604EF62351CEF20001F0230B705B
:101BD000072190601160704790F83C30012B04BFE2
:101BE000022070474FEAB2020123032A80F83C30FA
:101BF00000F2E8802DE9F041DFE802F0023A75AF2B
:101C0000036800251A6AC4F2010522F001021A6273
:101C10001C6A1A46D3F804C052F818EF8E6824F0F4
:101C20000204AB4244EA060405D1CE6824F00C0459
:101C300026F0040634430E68AB4206D1D1E90558BC
:101C40002CF440772F4347EA080C2EF073073743F4
:101C5000C3F804C09F614F6809695F631C629F6994
:101C600047F008079F619F6927F004079F61A3E081
:101C7000036800251A6AC4F2010522F010021A62F4
:101C80001C6A1A46D3F804C052F818EF8E6824F084
:101C90002004AB4244EA061407D1CE686FF0400737
:101CA00024F0C00407EA061634430E68AB4206D19E
:101CB000D1E905572CF4406C3D434CEA850C2EF4D9
:101CC000E64747EA0627C3F804C09F614F680969E1
:101CD0009F631C629F6947F400679F619F6927F4B7
:101CE00080679F6167E0036800251A6AC4F20105F6
:101CF00022F480721A621C6A1A46D3F804C052F8A1
:101D00001CEF8E6824F40074AB4244EA062407D129
:101D1000CE6840F2FF47360224F44064BE433443A9
:101D20000E68AB4206D1D1E905572CF4405C3D4327
:101D30004CEA051C2EF073073743C3F804C0DF617B
:101D40004F680969DF631C62DF6947F00807DF61DC
:101D5000DF6927F00407DF612EE0036800271A6AB5
:101D6000C4F2010722F480521A621A46D3F820C046
:101D70005D6852F81C4FD1F800E08E68BB4204D178
:101D80004F6925F4804545EA87152CF4005747EA4A
:101D9000063724F4E64646EA0E265D60DE614E68AC
:101DA00009691E641F62DF6947F40067DF61DF694C
:101DB00027F48067DF61090213681943002311606B
:101DC000BDE8F041002180F83C1018467047000043
:101DD000002804BF0120704710B5044690F83D006C
:101DE00028B9002084F83C00204600F01FF80220AB
:101DF00084F83D002068211D01F08CFF012084F84B
:101E0000460084F83E0084F83F0084F8400084F8DF
:101E1000410084F8420084F8430084F8440084F8C8
:101E2000450084F83D00002010BD0000006844F229
:101E30000001C4F20101884218BF704781B0002040
:101E4000009043F64400C4F20200016841F480317E
:101E50000160006800F480300090009801B0704785
:101E600041B1082909D0042914BF00F1410200F151
:101E70003F0204E000F13E0201E000F1400212786E
:101E8000012A1CBF01207047022241B1082909D054
:101E9000042914BF80F8412080F83F2004E080F836
:101EA0003E2001E080F84020006801F01F0101227F
:101EB000036A8A4023EA02010162036A4421C4F2F0
:101EC00001011A43A1F144039842026203D10A6856
:101ED00042F400420A6040F6FF31C4F20001884239
:101EE0000FDCB0F1804F1DD040F20041C4F2000180
:101EF000884217D040F60001C4F20001884211D098
:101F000015E040F60041C4F2000188420AD044F2D4
:101F10000001C4F20101884204D00021C4F2010191
:101F2000884204D1816801F00701062903D00168C5
:101F300041F001010160002070470000FEE7000051
:101F40002DE9F04395B0010A002201AB03EB4207F3
:101F500003F812100132282A7870F7D140F2B8172E
:101F6000C2F20007388879880138013940F2000848
:101F700082B28BB200200021C4F2020801F016F9EF
:101F8000404610210022FEF7E1FD08F580600121A6
:101F90000122FEF7DBFD7888E8B140F2C0054FF082
:101FA0000009C2F2000501AE05E000BF788809F122
:101FB000010981450FD238880028F7D0002400BFDE
:101FC00028463146502264232834FFF7FDFB388829
:101FD0008442F5D3EAE7404610210122FEF7B6FD20
:101FE00015B0BDE8F08300002DE9F04F8DB0CDE9CC
:101FF000080100200393190AC4F20200079102FBB2
:1020000002F1039E02914FF0FF3100F580600190D4
:10201000069101F1010BDDF820800999A8EB02007F
:10202000A1EB0B0180B28CB20B92214602462346F3
:10203000CDF828B0059001F0B9F80020C4F20200F4
:10204000102100228246FEF781FD019F01213846C2
:102050000122FEF77BFD07980DF132018DF8320069
:10206000054640F2C000C2F20000022264238DF84F
:102070003360FFF7A9FB504610210122FEF766FDF1
:102080000B98214640441FFA80F948464A462346A9
:1020900001F08CF85046102100225446FEF756FD00
:1020A000384601210122BA46FEF750FD40F2C00039
:1020B000C2F200000DF13201022264238DF8325089
:1020C0008DF83360FFF780FB204610210122FEF7D8
:1020D0003DFDA8EB0B00DDF824B00B9984B2594408
:1020E00089B2204622460B46049101F05FF840F287
:1020F0000008C4F20208404610210022FEF726FD27
:10210000384601210122FEF721FD40F2C000C2F253
:1021100000000DF13201022264238DF832508DF857
:102120003360FFF751FB404610210122FEF70EFD00
:102130000B982246ABEB00001FFA80F82046414680
:10214000434601F033F80024C4F202042046102173
:102150000022FEF7FBFC384601210122FEF7F6FCC7
:102160008DF8325040F2C005C2F2000528460DF14C
:102170003201022264238DF83360FFF725FB2046ED
:1021800010210122A246FEF7E1FC0A9C4A4604EB1C
:102190000B001FFA80FB484659465B4601F006F8E3
:1021A000504610210022FEF7D1FC384601210122C1
:1021B000B946FEF7CBFC079F28460DF132052946AC
:1021C000022264238DF832708DF83360FFF7FCFA39
:1021D000504610210122FEF7B9FC089841462044E0
:1021E00084B220462246434600F0E0FF50461021CC
:1021F0000022FEF7ABFC484601210122FEF7A6FCB7
:1022000040F2C008C2F20008404629460222642378
:102210008DF832708DF83360FFF7D6FA50461021F2
:102220000122FEF793FC0499204622460B4600F05B
:10223000BDFF504610210022FEF788FC48460121D0
:102240000122FEF783FC40462946022264238DF8D2
:1022500032708DF83360FFF7B7FA50461021012233
:10226000FEF774FC0598594602465B4600F09EFF57
:10227000504610210022FEF769FC48460121012248
:10228000FEF764FC40462946022264238DF8327032
:102290008DF83360FFF798FA504610210122FEF7BF
:1022A00055FC0B9A069802FB02F1023000FB00106D
:1022B0000299884288BF013A0A999142FFF6A8AE76
:1022C0000DB0BDE8F08F00002DE9F04F85B0054658
:1022D0000C46111AB2EB050B18BF4FF0FF3B00295B
:1022E0000F4648BF4F420129A3EB04004FF00109FC
:1022F000A8BFCB46191B18BF4FF0FF310028039031
:1023000044BF434203930128B8BF894603980E9EF9
:1023100040F2000C874288BF3846C4F2020C02909B
:10232000300A019000260CF580604FF0000A4FF053
:1023300000080090A8B2A1B202460B4600F036FF9A
:102340000020C4F2020010210022FEF7FFFB0098DB
:1023500001210122FEF7FAFB01980DF112018DF81F
:1023600012000E9802228DF8130040F2C000C2F253
:1023700000006423FFF728FA0020C4F202001021B5
:102380000122FEF7E3FB0399029B0AEB07003144AD
:10239000B0EB030A08F10108D4BF82465D44CE1AAF
:1023A0001FFA88F0D4BF0E464C448342C2D205B017
:1023B000BDE8F08FB0B582B0154602460B4600F07E
:1023C000F5FE0024C4F20204204610210022FEF78C
:1023D000BDFB04F5806001210122FEF7B7FB68BA5E
:1023E000ADF8060040F2C000C2F200000DF1060197
:1023F00002226423FFF7E8F9204610210122FEF7AC
:10240000A5FB02B0B0BD00002DE9F04F85B0154628
:102410000E46013A591E1C4692B28BB231460290CA
:1024200000F0C4FEA64201943CD20E980024C4F2EF
:10243000020440F2C0084FEA102904F58067C2F296
:10244000000805E0039E01990136B0B2884229D206
:10245000029803960E9EA8420DF1120BF2D2DDF8FF
:1024600008A000BF204610210022FEF76FFB38466F
:1024700001210122FEF76AFB4046594602226423ED
:102480008DF812908DF81360FFF79EF92046102109
:102490000122FEF75BFB0AF1010A1FFA8AF0A8424B
:1024A000E0D3CFE705B0BDE8F08F00002DE9F04F95
:1024B00083B00024C4F2020404F58065284602219A
:1024C00000220027FEF742FB6420FEF759FA284657
:1024D000022101224FF00108FEF738FB3220FEF7FF
:1024E0004FFA11208DF80800284601210022FEF73E
:1024F0002DFB204610210022FEF728FB40F2C006EB
:10250000C2F2000602A9304601226423FFF75CF9FB
:10251000204610210122FEF719FB7820FEF730FA41
:1025200004208DF807002846012100220297FEF7BB
:102530000DFB204610210022FEF708FB0DF10701DC
:10254000304601226423FFF73FF92846012101228A
:10255000FEF7FCFA02A9304603226423FFF78CF849
:10256000204610210122FEF7F1FA029840F2B81637
:10257000C2F200060028706000F00186B2208DF8DB
:102580000800284601210022FEF7E0FA204610212B
:102590000022FEF7DBFA40F2C006C2F2000602A9F2
:1025A000304601226423FFF70FF920461021012253
:1025B000FEF7CCFA4FF00C092846012101228DF8D4
:1025C0000890FEF7C3FA204610210022FEF7BEFA5B
:1025D00002A9304601226423FFF7F6F820461021B5
:1025E0000122FEF7B3FA2846012101228DF8089056
:1025F000FEF7ACFA204610210022FEF7A7FA02A946
:10260000304601226423FFF7DFF820461021012223
:10261000FEF79CFA2846012101228DF80870FEF78A
:1026200095FA204610210022FEF790FA02A93046C2
:1026300001226423FFF7C8F8204610210122FEF78B
:1026400085FA33272846012101228DF80870FEF70C
:102650007DFA204610210022FEF778FA02A93046C2
:1026600001226423FFF7B0F8204610210122FEF773
:102670006DFA2846012101228DF80870FEF766FAEE
:10268000204610210022FEF761FA02A930460122FD
:102690006423FFF799F8204610210122FEF756FA2D
:1026A000B7208DF80800284601210022FEF74EFAD7
:1026B000204610210022FEF749FA02A930460122E5
:1026C0006423FFF781F8204610210122FEF73EFA2D
:1026D00035272846012101228DF80870FEF736FAC9
:1026E000204610210022FEF731FA02A930460122CD
:1026F0006423FFF769F8204610210122FEF726FA2D
:10270000BB208DF80800284601210022FEF71EFAA2
:10271000204610210022FEF719FA02A930460122B4
:102720006423FFF751F8204610210122FEF70EFA2C
:102730002846012101228DF80870FEF707FA20468D
:1027400010210022FEF702FA02A93046012264237A
:10275000FFF73AF8204610210122FEF7F7F9C020D2
:102760008DF80800284601210022FEF7EFF92046E7
:1027700010210022FEF7EAF902A930460122642363
:10278000FFF722F8204610210122FEF7DFF9284644
:10279000012101228DF80890FEF7D8F9204610217A
:1027A0000022FEF7D3F902A9304601226423FFF785
:1027B0000BF8204610210122FEF7C8F9C2208DF83F
:1027C0000800284601210022FEF7C0F9204610210A
:1027D0000022FEF7BBF902A9304601226423FEF76E
:1027E000F3FF204610210122FEF7B0F9284601210F
:1027F00001228DF80880FEF7A9F920461021002259
:10280000FEF7A4F902A9304601226423FEF7DCFF9B
:10281000204610210122FEF799F9C3208DF8080007
:10282000284601210022FEF791F9204610210022BE
:10283000FEF78CF902A9304601226423FEF7C4FF9B
:10284000204610210122FEF781F913208DF808009F
:10285000284601210122FEF779F9204610210022A5
:10286000FEF774F902A9304601226423FEF7ACFF9B
:10287000204610210122FEF769F9C4208DF80800D6
:10288000284601210022FEF761F92046102100228E
:10289000FEF75CF902A9304601226423FEF794FF9B
:1028A000204610210122FEF751F920208DF8080062
:1028B000284601210122FEF749F920461021002275
:1028C000FEF744F902A9304601226423FEF77CFF9B
:1028D000204610210122FEF739F9C6208DF80800A4
:1028E000284601210022FEF731F92046102100225E
:1028F000FEF72CF902A9304601226423FEF764FF9B
:10290000204610210122FEF721F90F272846012138
:1029100001228DF80870FEF719F9204610210022D7
:10292000FEF714F902A9304601226423FEF74CFF9A
:10293000204610210122FEF709F9CA208DF808006F
:10294000284601210022FEF701F92046102100222D
:10295000FEF7FCF802A9304601226423FEF734FF9B
:10296000204610210122FEF7F1F82846012101221C
:102970008DF80870FEF7EAF8204610210022FEF7D5
:10298000E5F802A9304601226423FEF71DFF204628
:1029900010210122FEF7DAF8C8208DF80800284639
:1029A00001210022FEF7D2F8204610210022FEF776
:1029B000CDF802A9304601226423FEF705FF204628
:1029C00010210122FEF7C2F84FF0080A2846012123
:1029D00001228DF808A0FEF7B9F820461021002248
:1029E000FEF7B4F802A9304601226423FEF7ECFE9C
:1029F000204610210122FEF7A9F84FF0550828467D
:102A0000012100228DF80880FEF7A0F82046102151
:102A10000022FEF79BF802A9304601226423FEF74C
:102A2000D3FE204610210122FEF790F890208DF869
:102A30000800284601210122FEF788F820461021CF
:102A40000022FEF783F802A9304601226423FEF734
:102A5000BBFE204610210122FEF778F8D0208DF829
:102A600008002846012100224FF0D009FEF76EF839
:102A7000204610210022FEF769F802A93046012203
:102A80006423FEF7A1FE204610210122FEF75EF826
:102A9000A4208DF80800284601210122FEF756F8EF
:102AA000204610210022FEF751F802A930460122EB
:102AB0006423FEF789FE204610210122FEF746F826
:102AC000A1208DF80800284601210122FEF73EF8DA
:102AD000204610210022FEF739F802A930460122D3
:102AE0006423FEF771FE204610210122FEF72EF826
:102AF00036208DF80800284601210022FEF726F82E
:102B0000204610210022FEF721F802A930460122BA
:102B10006423FEF759FE204610210122FEF716F825
:102B200000272846012101228DF80870FEF70EF8D3
:102B3000204610210022FEF709F802A930460122A2
:102B40006423FEF741FE204610210122FDF7FEFF1F
:102B50003A208DF80800284601210022FDF7F6FFF3
:102B6000204610210022FDF7F1FF02A93046012284
:102B70006423FEF729FE204610210122FDF7E6FF1F
:102B800005208DF80800284601210122FDF7DEFF0F
:102B9000204610210022FDF7D9FF02A9304601226C
:102BA0006423FEF711FE204610210122FDF7CEFF1F
:102BB000E0208DF80800284601210022FDF7C6FF1D
:102BC000204610210022FDF7C1FF02A93046012254
:102BD0006423FEF7F9FD204610210122FDF7B6FF20
:102BE0002846012101228DF80890FDF7AFFF20460D
:102BF00010210022FDF7AAFF02A93046012264231A
:102C0000FEF7E2FD204610210122FDF79FFF284636
:102C1000012101228DF80870FDF798FF2046102150
:102C20000022FDF793FF02A9304601226423FEF73C
:102C3000CBFD204610210122FDF788FF06208DF8EC
:102C40000800284601210122FDF780FF20461021BF
:102C50000022FDF77BFF02A9304601226423FEF724
:102C6000B3FD204610210122FDF770FF09208DF8E9
:102C70000800284601210122FDF768FF20461021A7
:102C80000022FDF763FF02A9304601226423FEF70C
:102C90009BFD204610210122FDF758FF0B272846F7
:102CA000012101228DF80870FDF750FF2046102108
:102CB0000022FDF74BFF02A9304601226423FEF7F4
:102CC00083FD204610210122FDF740FF2A208DF8C8
:102CD0000800284601210122FDF738FF2046102177
:102CE0000022FDF733FF02A9304601226423FEF7DC
:102CF0006BFD204610210122FDF728FF3C208DF8B6
:102D00000800284601210122FDF720FF204610215E
:102D10000022FDF71BFF02A9304601226423FEF7C3
:102D200053FD204610210122FDF710FF2846012106
:102D300001228DF80880FDF709FF204610210022AE
:102D4000FDF704FF02A9304601226423FEF73CFD93
:102D5000204610210122FDF7F9FE4FF04B0B2846CB
:102D6000012101228DF808B0FDF7F0FE2046102168
:102D70000022FDF7EBFE02A9304601226423FEF794
:102D800023FD204610210122FDF7E0FE2846012107
:102D900001228DF808A0FDF7D9FE2046102100225F
:102DA000FDF7D4FE02A9304601226423FEF70CFD94
:102DB000204610210122FDF7C9FE4FF0160A2846D1
:102DC000012101228DF808A0FDF7C0FE2046102148
:102DD0000022FDF7BBFE02A9304601226423FEF764
:102DE000F3FC204610210122FDF7B0FE4FF014083D
:102DF0002846012101228DF80880FDF7A7FE204614
:102E000010210022FDF7A2FE02A930460122642310
:102E1000FEF7DAFC204610210122FDF797FE19206B
:102E20008DF80800284601210122FDF78FFE20467B
:102E300010210022FDF78AFE02A9304601226423F8
:102E4000FEF7C2FC204610210122FDF77FFE4FF065
:102E500020092846012101228DF80890FDF776FE11
:102E6000204610210022FDF771FE02A93046012202
:102E70006423FEF7A9FC204610210122FDF766FE1F
:102E8000E1208DF80800284601210022FDF75EFEB2
:102E9000204610210022FDF759FE02A930460122EA
:102EA0006423FEF791FC204610210122FDF74EFE1F
:102EB000D0208DF80800284601210122FDF746FEAA
:102EC000204610210022FDF741FE02A930460122D2
:102ED0006423FEF779FC204610210122FDF736FE1F
:102EE00000208DF80800284601210122FDF72EFE62
:102EF000204610210022FDF729FE02A930460122BA
:102F00006423FEF761FC204610210122FDF71EFE1E
:102F100006208DF80800284601210122FDF716FE43
:102F2000204610210022FDF711FE02A930460122A1
:102F30006423FEF749FC204610210122FDF706FE1E
:102F400009208DF80800284601210122FDF7FEFD29
:102F5000204610210022FDF7F9FD02A9304601228A
:102F60006423FEF731FC204610210122FDF7EEFD1F
:102F70002846012101228DF80870FDF7E7FD204663
:102F800010210022FDF7E2FD02A930460122642350
:102F9000FEF71AFC204610210122FDF7D7FD292754
:102FA0002846012101228DF80870FDF7CFFD20464B
:102FB00010210022FDF7CAFD02A930460122642338
:102FC000FEF702FC204610210122FDF7BFFD36204E
:102FD0008DF80800284601210122FDF7B7FD2046A3
:102FE00010210022FDF7B2FD02A930460122642320
:102FF000FEF7EAFB204610210122FDF7A7FD542031
:103000008DF80800284601210122FDF79FFD20468A
:1030100010210022FDF79AFD02A930460122642307
:10302000FEF7D2FB204610210122FDF78FFD284636
:10303000012101228DF808B0FDF788FD20461021FE
:103040000022FDF783FD02A9304601226423FEF72A
:10305000BBFB204610210122FDF778FD0D208DF8E5
:103060000800284601210122FDF770FD20461021AD
:103070000022FDF76BFD02A9304601226423FEF712
:10308000A3FB204610210122FDF760FD2846012107
:1030900001228DF808A0FDF759FD204610210022DD
:1030A000FDF754FD02A9304601226423FEF78CFB94
:1030B000204610210122FDF749FD28460121012269
:1030C0008DF80880FDF742FD204610210022FDF713
:1030D0003DFD02A9304601226423FEF775FB204620
:1030E00010210122FDF732FD21208DF8080028462D
:1030F00001210122FDF72AFD204610210022FDF7C3
:1031000025FD02A9304601226423FEF75DFB20461F
:1031100010210122FDF71AFD2846012101228DF818
:103120000890FDF713FD204610210022FDF70EFD4B
:1031300002A9304601226423FEF746FB20461021F7
:103140000122FDF703FD2846012100228DF80870B9
:10315000FDF7FCFC204610210022FDF7F7FC02A938
:10316000304640F2B81601226423C2F20006FEF790
:103170002BFB204610210122FDF7E8FC01E001F0C5
:1031800059FF2B20F0812C20C0F22A00C6F80A003B
:10319000F020C0F2401030603620082100F02CFBF7
:1031A0000020FEF7CDFE03B0BDE8F08F2DE9F04F13
:1031B00083B040F2B81BC2F2000B002489469BF892
:1031C0000C10C4F2020404F58065174606468DF81B
:1031D00001102846012100229846FDF7B7FC204641
:1031E00010210022FDF7B2FC40F2C00AC2F2000A30
:1031F0000DF10101504601226423FEF7E5FA204655
:1032000010210122FDF7A2FC300A8DF802002846A9
:1032100001210122FDF79AFC204610210022FDF732
:1032200095FC0DF10201504601226423FEF7CCFA11
:10323000204610210122FDF789FC284601210122A8
:103240008DF80360FDF782FC204610210022FDF777
:103250007DFC0DF10301504601226423FEF7B4FA10
:10326000204610210122FDF771FC380A8DF8040078
:10327000284601210122FDF769FC20461021002289
:10328000FDF764FC01A9504601226423FEF79CFA75
:10329000204610210122FDF759FC28460121012278
:1032A0008DF80570FDF752FC204610210022FDF735
:1032B0004DFC0DF10501504601226423FEF784FA0E
:1032C000204610210122FDF741FC9BF80E00012150
:1032D0008DF8060028460022FDF738FC2046102114
:1032E0000022FDF733FC0DF1060150460122642354
:1032F000FEF76AFA204610210122FDF727FC4FEA6B
:1033000019208DF80700284601210122FDF71EFC37
:10331000204610210022FDF719FC0DF1070150464F
:1033200001226423FEF750FA204610210122FDF706
:103330000DFC2846012101228DF80890FDF706FCBE
:10334000204610210022FDF701FC02A9504601226F
:103350006423FEF739FA204610210122FDF7F6FB1F
:103360004FEA18208DF80900284601210122FDF7B7
:10337000EDFB204610210022FDF7E8FB0DF10901CD
:10338000504601226423FEF71FFA20461021012235
:10339000FDF7DCFB2846012101228DF80A80FDF7AC
:1033A000D5FB204610210022FDF7D0FB0DF10A01CC
:1033B000504601226423FEF707FA2046102101221D
:1033C000FDF7C4FB9BF80A0001218DF80B0028468D
:1033D0000022FDF7BBFB204610210022FDF7B6FBC3
:1033E0000DF10B01504601226423FEF7EDF9204652
:1033F00010210122FDF7AAFB03B0BDE8F08F000009
:103400002DE9F04F8DB0179C83464FEA54092009EF
:103410000A93154601235FEA497218BF03EB1410A3
:1034200000FB04F60BEB54000A190138531E82B25C
:103430009BB258460F460991FFF7B8FE002E00F0E8
:10344000E480A4F10C00C0F3850040EA8410C3B20C
:10345000052B00F2DA800120984010F02B0F00F0CD
:10346000D480169F0A9932464FEA1128390AA5F1ED
:10347000200008910121C0B2012E98BF0A4647F2F0
:103480005C1100EB4006C0F6000101EB0611029151
:1034900046F66C31C0F6000101EB0011049148F2D0
:1034A0002C310027C0F60001C4F202070692002268
:1034B000039601EB80105E464FF0000A01900593E1
:1034C0000BE000BF09985E4601300990079A069804
:1034D000059B0132824200F09880032B07920DD0A9
:1034E000012B09D063B9039846F2F861C0F60001D8
:1034F00001EB800005E000BF049802E0029800E0C4
:10350000019810440578002409E000BF0136B0B2EC
:10351000A0EB0B004845D5D00134082CD6D0189824
:1035200000284FF0010000FA04F029D02842EDD025
:103530000999B0B289B202460B46FFF737FE38460A
:1035400010210022FDF702FB07F580600121012216
:10355000FDF7FCFA0A980DF132018DF8330040F2C4
:10356000C000C2F20000022264238DF83280FEF710
:103570002BF9384610210122FDF7E8FAC6E700BF13
:10358000284216D0384610210022FDF7DFFA07F551
:10359000806001210122FDF7D9FA0A988DF82E806A
:1035A0008DF82F0040F2C000C2F200000DF12E0194
:1035B00015E0384610210022FDF7C8FA07F58060B3
:1035C00001210122FDF7C2FA08980CA98DF83000FC
:1035D00016988DF8310040F2C000C2F200000222BD
:1035E0006423FEF7F1F8384610210122FDF7AEFA08
:1035F0000AF1010A5FFA8AF0B0FBF9F101FB190048
:10360000002889D14FF0000A60E70DB0BDE8F08FC7
:103610002DE9F04F85B0002B049253D00746109847
:103620001C468B464508581E4FF000084FF0000915
:103630004FF0000A039017E04FF0010A40F030020B
:103640000F9808FB057100901098D2B2019088B2D3
:1036500059460E9B00260296FFF7D2FE08F101089C
:10366000A04509F101092DD06FEA090020440106A7
:1036700008D00121013801EB810102064FEA410126
:10368000F8D100E001210498BAF1000FB0FBF1F08D
:1036900049F69A11C1F69911A0FB011202EB8201C1
:1036A000A0EB4100CAD103994145C7DD0028C3D131
:1036B0000F9908FB05700091109980B2019159464D
:1036C0002022C6E705B0BDE8F08F00002DE9F04FDD
:1036D00085B01D46144602440B44013A013B92B2A8
:1036E0009BB2FFF763FD002C02945DD000260E9A7A
:1036F000C4F2020640F2C0094FF0000806F58067E8
:10370000C2F200090DF113040023019507E000BF88
:10371000039B0299013398B2019D884244D2002D47
:103720000393F5D008EB050B12F8180002EB480ADA
:103730008DF812003846012115460122FDF706FAE0
:10374000304610210022FDF701FA48460DF1120122
:1037500001226423FEF738F8304610210122FDF7DC
:10376000F5F99AF8010001218DF81300384601227D
:10377000FDF7ECF9304610210022FDF7E7F9484645
:10378000214601226423FEF71FF830461021012252
:10379000FDF7DCF908F101081FFA88F01FFA8BF138
:1037A0002A468142C0D1B3E705B0BDE8F08F0000E2
:1037B0002DE9F04F83B09B461378CBB1DDE90C9A2D
:1037C000DDF838800D4606464FEA5A07541E00BF02
:1037D000B0B2DAB229465B46CDE9009ACDF808804E
:1037E000FFF70EFEA3783E44002B04F10104EFD155
:1037F00003B0BDE8F08F0000F0B581B00024C4F242
:10380000020404F580660D468DF802003046012161
:103810000022FDF79BF9204610210022FDF796F9C2
:1038200040F2C007C2F200070DF102013846012242
:103830006423FDF7C9FF204610210122FDF786F918
:103840003046012101228DF80350FDF77FF9204613
:1038500010210022FDF77AF90DF10301384601220B
:103860006423FDF7B1FF204610210122FDF76EF918
:1038700001B0F0BD80B582B00020019043F6300069
:10388000C4F202000168002241F480010160006876
:10389000002100F48000019001983A20FDF7E0F942
:1038A0003A2002B0BDE88040FDF7CAB92DE9F041E9
:1038B00086B0002743F630000597CDE90377CDE9C0
:1038C00001770097C4F20200016840F2004441F021
:1038D000040101600168C4F2020401F004010091D6
:1038E000009900970168A4F5806541F080010160AE
:1038F0000168012201F080010091009900970168A0
:10390000102641F00101016001684FF0010801F04B
:103910000101009100990097016841F002010160E6
:103920000068102100F00200009000982846FDF782
:103930000DF9204641F201010122FDF707F9204669
:1039400002210022FDF702F9CDE9016801AE284607
:103950003146CDE90377FDF727F841F20300CDE9C1
:10396000010820463146CDE90377FDF71DF840F206
:10397000044001904FF48810CDE9020720463146FB
:10398000FDF712F806B0BDE8F081000080B540F206
:10399000A00042F60001C2F20000C4F200010022C1
:1039A0007F234FF0FF0C80E80E10C0E904228261F3
:1039B000FDF7D2FC002808BF80BDBDE88040FCF7C1
:1039C00073BE000080B540F2C00043F20001C2F2B5
:1039D0000000C4F201014FF48272002380E80E005F
:1039E00000F114014FF4007C4FF0080E81E80850FC
:1039F0000A21C0E90333C0E90833C0E90A31FDF701
:103A000055FD002808BF80BDBDE88040FCF74CBED6
:103A100080B540F2181043F60001C2F20000C4F273
:103A200000014FF48272002380E80E0000F11401BF
:103A30004FF4007C4FF0200E81E808500A21C0E9C5
:103A40000333C0E90833C0E90A31FDF72FFD002830
:103A500008BF80BDBDE88040FCF726BEB0B58EB083
:103A600044F2000540F27010C4F201050024C2F2D5
:103A70000000312163220794CDE90544CDE90344D8
:103A8000CDE90144C0E90051C0E90242046184610A
:103A9000FEF79EF9002818BFFCF706FE6020CDE96E
:103AA00001040394059440F27014C2F2000401A9C9
:103AB00020460422FEF790F8002818BFFCF7F4FD1A
:103AC00021680020A9420D90CDE90B000A900990D1
:103AD00001D00EB0B0BD43F630010890C4F202012F
:103AE0000A6842F001020A60096801F001010891C8
:103AF0000899082109910221CDE90A100C900320B0
:103B00000D9005F5404009A9FCF74EFF0EB0B0BD81
:103B1000FEE70000FEE700007047000010B5044615
:103B200040689446B0F5827F0A4612D1A168B1F58B
:103B3000004F02D0B1F5806F04D121680B6823F0EB
:103B400040030B60B0F5827F03D1A068B0F5806FB1
:103B50000DD120460121634600F00CF828B1606DBC
:103B600040F020006065032010BD002010BD2046FD
:103B70008021F0E72DE9F04381B01E4690460D46C6
:103B80008146FCF7E9FF301A00EB0807FCF7E4FF79
:103B900040F20801C2F200010968C1F3CB31794358
:103BA0000091D9F8001089682940A94219D1064628
:103BB00008F1010406E000BFD9F800008068284041
:103BC000A8420ED1002CF7D0FCF7C6FF801BB842EC
:103BD0000BD200980099002808BF0746481E0090A5
:103BE000EAE7002001B0BDE8F083D9E900014268AE
:103BF000B1F5827F22F0E00242600BD1D9F80810C3
:103C0000B1F5004F02D0B1F5806F03D1016821F00A
:103C100040010160D9F82810B1F5005F07D10168B3
:103C200021F400510160016841F40051016001205C
:103C300089F85100002089F85000032001B0BDE848
:103C4000F083000070470000FCF78CBF70B592B0A5
:103C500006AC20463021FCF7F3FA002543F640007D
:103C60000595CDE90355CDE901550095C4F2020053
:103C70000168022641F080510160006800F0805028
:103C80000090009847F200000095C4F2000001681F
:103C900041F440410160006800F440400090009809
:103CA000052006904FF480300790012008904FF4D3
:103CB00080000D900C200E906020CDE90F060420AE
:103CC000119020460C96FDF79DF920B1EFF310807E
:103CD00072B600BFFEE70F20CDE901064FF4805019
:103CE000CDE9040501A803210395FDF7A1F820B152
:103CF000EFF3108072B600BFFEE712B070BD000097
:103D00004EF68850CEF20000016841F47001016067
:103D10007047000010B540F2FF7E0368C4F2000E49
:103D200040F2000C7045C4F2010C0ADD40F60002BE
:103D3000C4F2000290420DD060450BD040F6004224
:103D400004E0B0F1804F05D040F20042C4F200021E
:103D5000904203D14A6823F0700313434FF6FF7279
:103D6000C4F20002904209DC704512DCB0F1804FD1
:103D700026D040F20042C4F200021FE044F2FF32BB
:103D8000C4F2010290420FDC604519D044F20002F7
:103D900012E040F60002C4F20002904210D040F659
:103DA0000042C4F2000209E044F60002C4F201023B
:103DB000904205D044F20042C4F20102904203D185
:103DC000CA6823F44073134323F080024B69D1F88F
:103DD00000E08C681A4360450260C462C0F828E0C5
:103DE00002D10969CCF830100121416110BD0000F9
:103DF0002DE9F04F83B01D4616460F46804601243C
:103E00004FF010094FF6FF7A5DA228208C214FF465
:103E10007843CDE900A902944FF4784BFFF7C8FC32
:103E200058A278208C214FF47843CDE900A9029460
:103E3000FFF7BEFC54A22820A0214FF47843CDE91F
:103E400000A90294FFF7B4FC50A27820A0214FF4FF
:103E50007843CDE900A90294FFF7AAFC4CA22820E0
:103E6000B4214FF47843CDE900A90294FFF7A0FCF8
:103E700048A27820B4214FF47843CDE900A90294F8
:103E8000FFF796FC44A22820C8214FF47843CDE9DF
:103E900000A90294FFF78CFC40A27820C8214FF4BF
:103EA0007843CDE900A90294FFF782FC3CA22820C8
:103EB000DC214FF47843CDF800A00294CDF80490B3
:103EC000FFF776FC40208C2142460423CDE900BA5E
:103ED000CDF80890FFF79CFB90208C213A460423F4
:103EE000CDE900BACDF80890FFF792FB4020A02161
:103EF00032460423CDE900BACDF80890FFF788FBDD
:103F00009020A0212A460423CDE900BACDF80890DC
:103F1000FFF77EFB0C9A4020B4210423CDE900BAC0
:103F2000CDF80890FFF774FB0D9A9020B42104237C
:103F3000CDE900BACDF80890FFF76AFB0E9A402051
:103F4000C8210423CDE900BACDF80890FFF760FB43
:103F50000F9A9020C8210423CDE900BACDF808902B
:103F6000FFF756FB109A6020DC210323CDE900BA4D
:103F7000CDF80890FFF74CFB03B0BDE8F08F00BF11
:103F800078313A0079313A0078323A0079323A00A1
:103F900078333A0079333A0078343A0079343A0089
:103FA0006661632069733A002DE9F04F81B02DED11
:103FB0000A8B92B04FF6FF704FF6FF77FDF7C0FF08
:103FC0004FF6FF70FDF7BCFF012510260FF6F43207
:103FD0000A2028210023CDE9007602950024FFF76E
:103FE000E7FB0FF6FC320A2038210023CDE90076EA
:103FF0000295FFF7DDFB0FF604420A20482100235B
:10400000CDE900760295FFF7D3FB0FF60C420A20AC
:1040100058210023CDE900760295FFF7C9FB0FF682
:1040200014420A2068210023CDE900760295FFF7AB
:10403000BFFB4FF47845082014212122142300955A
:10404000FEF742F914200821142221230095FEF7DF
:104050003BF9152015214FF47842FEF7ABF91320F8
:1040600015214FF47842FEF7A5F9152013214FF4DE
:104070007842FEF79FF9132013214FF47842FEF7A0
:1040800099F91420142106224FF47843FDF7ACFF70
:1040900040F20C079FEDD68B9FEDD79B9FEDD8ABE1
:1040A000C2F200070DF13808B6EE00BAB0EE00CA51
:1040B0004FF000093C75BC610EE006224FF47843D6
:1040C000FDF792FF00240A20FCF75AFC0134A0B24D
:1040D000B0F57A7F00F24E85796801208847387DF7
:1040E00000F0C0014029EED100F0BF0038753969F9
:1040F0005FFA89F0032809F1010948F82010E1D896
:10410000DFE810F004006F00E900820108201421AC
:10411000212214234FF6FF740094FEF7D5F81420E3
:104120000821142221230094FEF7CEF81520152132
:104130004FF6FF72FEF73EF9132015214FF6FF727E
:10414000FEF738F9152013214FF6FF72FEF732F90A
:10415000132013214FF6FF72FEF72CF914201421BF
:1041600006224FF6FF73FDF73FFF40F2B810C2F290
:10417000000006881423A6F12000F11F80B28AB245
:1041800014214FF47845A6F114040095FEF79CF82D
:10419000A4B220460821224621230095FEF794F878
:1041A000A6F1130085B2284615214FF47842FEF798
:1041B00001F9A6F1150086B2304615214FF4784278
:1041C000FEF7F8F8284613214FF47842FEF7F2F88C
:1041D000304613214FF47842FEF7ECF820461421C4
:1041E0006BE740F2B81AC2F2000ABAF80060142372
:1041F000A6F12000F11F80B28AB214214FF6FF759C
:10420000A6F114040095FEF75FF8A4B22046082139
:10421000224621230095FEF757F8A6F1130085B238
:10422000284615214FF6FF72FEF7C4F8A6F11500D7
:1042300086B2304615214FF6FF72FEF7BBF82846CE
:1042400013214FF6FF72FEF7B5F8304613214FF6F3
:10425000FF72FEF7AFF82046142106224FF6FF73D7
:10426000FDF7C2FEBAF802602122A6F1140084B262
:104270000820214623464FF478450095FEF724F8A0
:10428000A6F12000F21F81B293B2142014220095EF
:10429000FEF71AF8A6F1130085B2152029464FF44F
:1042A0007842FEF787F8132029464FF47842FEF74C
:1042B00081F8A6F1150085B2152029464FF4784201
:1042C000FEF778F8132029464FF47842FEF772F88B
:1042D00014202146F1E640F2B817C2F200077E88AA
:1042E0002122A6F1140084B20820214623464FF66D
:1042F000FF750095FDF7E8FFA6F12000F21F81B2DF
:1043000093B2142014220095FDF7DEFFA6F11300EE
:1043100085B2152029464FF6FF72FEF74BF81320A1
:1043200029464FF6FF72FEF745F8A6F1150085B253
:10433000152029464FF6FF72FEF73CF81320294658
:104340004FF6FF72FEF736F81420214606224FF68C
:10435000FF73FDF749FE7D883C88A5F11401A4F1A7
:104360002000E21F1FFA81F880B292B24146434614
:104370004FF47847A4F114060097FDF7A5FFA5F1C7
:104380002000EA1F1FFA86FA81B293B250465246C5
:104390000097FDF799FFA4F11300A5F1130186B270
:1043A0008FB2304639464FF47842FEF703F8A4F155
:1043B000150084B2204639464FF47842FDF7FAFFE3
:1043C000A5F1150087B2304639464FF47842FDF723
:1043D000F1FF2046394640F20C074FF47842C2F212
:1043E0000007FDF7E7FF504641460DF1380864E647
:1043F0000000000000005940666666666666EE3F93
:10440000CDCCCCCCCCCCF03FBDF83820BDF83C00B6
:10441000BDF83A10BDF83E300D90101A0B920C9179
:10442000C91A404301FB01000993FBF7D7FF41EC98
:10443000100B01F061FF51EC100BFBF7DCFFBDF836
:104440004060BDF84410BDF84230BDF84670089198
:10445000711ADA1B494302FB021106960A93079769
:1044600007460846FBF7BAFF41EC100B01F044FF8A
:1044700051EC100BFBF7BFFF044600EE107A01EE83
:10448000104AB8EE400AB8EE411A80EE010A10EE6A
:10449000100AFBF7CFFF8146002C8A4600F0C0814E
:1044A00054EC195B484651462A462346FBF760FF09
:1044B000002840F0B58156EC1A8B484651464246DA
:1044C0003346FBF770FF002840F0AA81002F00F070
:1044D000A7810B9806990A9A401A0C994043891AA9
:1044E00001FB0100FBF77AFF41EC100B01F004FF28
:1044F00051EC100BFBF77FFF0D99089A079B891A67
:10450000099A4943D21A02FB021107460846FBF7F3
:1045100065FF41EC100B01F0EFFE51EC100BFBF7C7
:104520006AFF00EE107A01EE100AB8EE400AB8EE0B
:10453000411A80EE010A10EE100AFBF77BFF2A46B3
:10454000234682468B46FBF713FF002840F0EC81A0
:104550005046594642463346FBF7EFFE002800F02E
:10456000E3810D980699401ADDE909124043891A42
:1045700001FB0100FBF732FF41EC100B01F0BCFE28
:1045800051EC100BFBF737FF0B99089A079B891A20
:104590000C9A4943D21A02FB021107460846FBF760
:1045A0001DFF41EC100B01F0A7FE51EC100BFBF7C7
:1045B00022FF00EE107A01EE100AB8EE400AB8EEC3
:1045C000411A80EE010A10EE100AFBF733FF834612
:1045D00040F2B810C2F20000B0F8009058462A46E7
:1045E00023460F46FBF7C4FE002840F021825846C0
:1045F000394642463346FBF7A0FE002800F01882F9
:104600000D9A0B9FA9F1280000EE100AD01B01EEB5
:10461000100AB8EEC00AB8EEC11A80EE011A40F2D4
:10462000B810C2F2000045880C9B0A9EA5F1280034
:1046300000EE100AF01A02EE100AB8EEC00AB8EE48
:10464000C22A80EE020AD01903EE100A02EE109A76
:10465000B8EEC33AB8EE422A21EE033A32EE432ACC
:1046600022EE0B2A40F20C01BDEEC22AC2F200017A
:1046700012EE100A0884F01803EE100A02EE105A27
:10468000B8EEC33AB8EE422A20EE033A32EE432A9D
:1046900081ED061A22EE0B2AB0EEC11ABDEEC22A37
:1046A000B4EE4C1A12EE100AF1EE10FA81ED070A80
:1046B000488407DCB0EEC00AB4EE4C0AF1EE10FA02
:1046C00040F35E82A5F11401A9F12000A9F10702CF
:1046D0001FFA81F880B292B2414643464FF6FF7B03
:1046E000A9F11404CDF800B0FDF7EEFDA5F120000E
:1046F000EA1F1FFA84FA81B293B250465246CDF8AF
:1047000000B0FDF7E1FDA9F11300A5F1130186B298
:104710008FB2304639464FF6FF72FDF74BFEA9F1D6
:10472000150084B2204639464FF6FF72FDF742FE6F
:10473000A5F1150087B2304639464FF6FF72FDF7F6
:1047400039FE2046394640F20C074FF6FF72C2F29E
:104750000007FDF72FFE5046414606224FF6FF7335
:10476000FDF742FC08201421212214234FF4784441
:104770000094FDF7A9FD14200821142221230094A0
:10478000FDF7A2FD152015214FF47842FDF712FE2A
:10479000132015214FF47842FDF70CFE152013214C
:1047A0004FF47842FDF706FE132013214FF47842B0
:1047B000FDF700FE1420142106224FF47843FDF784
:1047C00013FC102001900120029028201A210FF2E2
:1047D00074420023CDF800B00024FEF7E9FF97F8FB
:1047E000240040F20402B0FA80F1490900286FF079
:1047F0002F0087F8241008BF6FF06F006FF06F0173
:10480000C2F2000208BF6FF02F01107040F20500E5
:10481000C2F2000001704FF000090DF138085BE4AE
:1048200040F2B810C2F20000B0F802B00488ABF158
:104830001401A4F12000E21F1FFA81F84FF6FF7661
:1048400080B292B241464346A4F114050096FDF7AA
:104850003BFDABF12000ABF10702ADB281B293B2E8
:1048600028462A460096FDF72FFDA4F11300ABF170
:10487000130186B28FB2304639464FF6FF72FDF70C
:1048800099FDA4F1150084B2204639464FF6FF7217
:10489000FDF790FDABF1150087B2304639464FF673
:1048A000FF72FDF787FD204639464FF6FF72FDF790
:1048B00081FD2846414606224FF6FF73FDF794FB23
:1048C00008201421212214234FF478440094FDF78A
:1048D000FBFC14200821142221230094FDF7F4FC92
:1048E000152015214FF47842FDF764FD13201521A2
:1048F0004FF47842FDF75EFD152013214FF4784206
:10490000FDF758FD132013214FF47842FDF752FDB7
:104910001420142106224FF47843FDF765FB53EC75
:10492000182B4846514607E140F2B810C2F2000089
:10493000B0F802900488A9F11401A4F12000E21F4C
:104940001FFA81F880B292B2414643464FF6FF7695
:10495000A4F114050096FDF7B7FCA9F12000A9F118
:104960000702ADB281B293B228462A460096FDF7FF
:10497000ABFCA4F11300A9F1130186B28FB230464B
:1049800039464FF6FF72FDF715FDA4F1150084B20C
:10499000204639464FF6FF72FDF70CFDA9F11500D0
:1049A00087B2304639464FF6FF72FDF703FD2046C9
:1049B00039464FF6FF72FDF7FDFC284641460622B8
:1049C0004FF6FF73FDF710FB08201421212214235A
:1049D0004FF478440094FDF777FC1420082114224A
:1049E00021230094FDF770FC152015214FF4784227
:1049F000FDF7E0FC132015214FF47842FDF7DAFCB7
:104A0000152013214FF47842FDF7D4FC1320132115
:104A10004FF47842FDF7CEFC1420142106224FF407
:104A20007843FDF7E1FA53EC182B5046594683E0E2
:104A300040F2B810C2F20000B0F802A0A9F12000C4
:104A4000AAF11401A9F107021FFA81F880B292B20B
:104A5000414643464FF6FF760597A9F114040096A8
:104A6000FDF732FCAAF12000AAF10702A5B281B23B
:104A700093B228462A460096FDF726FCA9F11300BA
:104A8000AAF1130186B28FB2304639464FF6FF7253
:104A9000FDF790FCA9F1150084B2204639464FF687
:104AA000FF72FDF787FCAAF1150087B23046394640
:104AB0004FF6FF72FDF77EFC204639464FF6FF7237
:104AC000FDF778FC2846414606224FF6FF73FDF7B6
:104AD0008BFA08201421212214234FF478440094E7
:104AE000FDF7F2FB14200821142221230094FDF786
:104AF000EBFB152015214FF47842FDF75BFC1320EA
:104B000015214FF47842FDF755FC152013214FF481
:104B10007842FDF74FFC132013214FF47842FDF744
:104B200049FC1420142106224FF47843FDF75CFA67
:104B3000059953EC182B5846FBF78DFBFBF75BFCF4
:104B4000074606980BAA00900A98019008980290D0
:104B50000798039007CA099B0497FFF749F940F2A9
:104B60000C0700244FF00009C2F200070DF13808CD
:104B7000FFF7B2BA12B0BDEC0A8B01B0BDE8F08FFE
:104B80004FF6FF70FDF7DCF910204FF6FF714EF283
:104B9000F4520127CDE90010C0F6000223206E2157
:104BA0001F230297FEF704FE4FF47A70FBF7E8FE2E
:104BB0004FF6FF7012B0BDEC0A8B01B0BDE8F04FAC
:104BC000FDF7BEB9506C656173652075736520741F
:104BD0006865207374796C757320636C69636B000E
:104BE0007468652063726F7373206F6E20746865DC
:104BF0002073637265656E2E0000000054686520A6
:104C000063726F73732077696C6C20616C77617964
:104C100073206D6F76650000756E74696C20746822
:104C2000652073637265656E2061646A7573746D67
:104C3000656E7400697320636F6D706C6574656474
:104C40002E0000005450204E65656420726561643A
:104C50006A7573742100000080B540F20C01C2F245
:104C6000000101F11000123100F0BEF8FFF79CF9CD
:104C7000012080BD70B584B040F20044C4F202044B
:104C80008DF80B00002041F20405ADF80700204626
:104C90004FF480510022CEF20005FBF757FF40F29F
:104CA0001810C2F200000DF10B0101220A23FCF7DB
:104CB0008BFD062003902E68FCF76AF94DF68361A0
:104CC000C4F21B31A0FB01010398890C48430390F7
:104CD00028680399801B8842FAD340F218100A26EC
:104CE000C2F200000DF107010DF109020223009646
:104CF000FCF74AFE20464FF480510122FBF726FFC5
:104D0000BDF8090000BAC0F3CB4004B070BD00008C
:104D1000B0B584B000250DF1060400BFE620FFF712
:104D2000A9FF24F815000135052DF7D10120002138
:104D3000024600BF34F8113034F81250AB4284BF41
:104D400024F8115024F812300132052AF2D1013131
:104D5000042900F10100EBD10020012134F81120D9
:104D6000013104291044F9D180B24AF6AB214843FD
:104D7000400C04B0B0BD0000B0B584B000250DF10A
:104D8000060400BFA620FFF775FF24F815000135C3
:104D9000052DF7D101200021024600BF34F8113063
:104DA00034F81250AB4284BF24F8115024F812306A
:104DB0000132052AF2D10131042900F10100EBD1C1
:104DC0000020012134F81120013104291044F9D1C7
:104DD00080B24AF6AB214843400C42F2107148437E
:104DE000000B04B0B0BD00002DE9F04383B0814654
:104DF00040F20400C2F200000678884600240DF15B
:104E0000020700BF3046FFF735FF27F814000134D2
:104E1000052CF7D101200021024600BF37F81130E0
:104E200037F81260B34284BF27F8116027F81230B8
:104E30000132052AF2D10131042900F10100EBD140
:104E40000024012037F81010013004280C44F9D157
:104E500040F20500C2F20000067800253046FFF758
:104E600009FF27F815000135052DF7D10120002194
:104E7000024600BF37F8113037F81260B34284BFE2
:104E800027F8116027F812300132052AF2D10131DA
:104E9000042900F10100EBD10020012137F8112095
:104EA000013104291044F9D1A1B24AF6AB2280B2F3
:104EB00051435043490C420CA9F800100120A8F8B6
:104EC000002003B0BDE8F083B0B582B0044640F2E4
:104ED0000040C4F202004FF48061FBF731FE40F263
:104EE0000C05C2F2000550B195F91400B0F1FF3F76
:104EF00036DD00204FF0FF31C5E9030193E00DF1ED
:104F0000060001A984B3FFF76FFF0DF102006946A7
:104F1000FFF76AFFBDF80200BDF80610884203D80B
:104F200000F132028A4205D8814274D801F132027E
:104F3000824270D9BDF80020BDF804309A4203D8EF
:104F400002F132049C4205D8934264D803F1320442
:104F5000944260D90844400828829818400859E0D3
:104F600000F07F0028755EE0FFF73EFF0DF10200C4
:104F70006946FFF739FFBDF80200BDF80610884208
:104F800003D800F132028A4205D8814243D801F1A8
:104F9000320282423FD9BDF80020BDF804309A4267
:104FA00003D802F132049C4205D8934233D803F16E
:104FB000320494422FD908444008288200EE100A97
:104FC000B5F9200095ED062AB8EE400A01EE100A68
:104FD000B8EEC11A22EE000A30EE010ABDEEC00A98
:104FE000991810EE100A49082882B5F9220095EDAB
:104FF000073A00EE101AB8EE400A01EE100AB8EEB9
:10500000C11A23EE000A30EE010ABDEEC00A10EE0E
:10501000100A6982688295F91400002803D429696E
:10502000C0202875E960287D00F0800002B0B0BD86
:10503000FEE700002DE9F04F81B00024C4F2020425
:10504000CF2004F580658DF8030028460121002259
:105050004FF0000BFBF77AFD2046102100224FF0A5
:105060001008FBF773FD40F2C006C2F200060DF116
:1050700003013046012264236427FCF7A5FB204688
:1050800010210122FBF762FD2846012101228DF843
:1050900003B0FBF75BFD204610210022FBF756FD15
:1050A0000DF10301304601226423FCF78DFB2046FD
:1050B00010210122FBF74AFDD9208DF80300284674
:1050C00001210122FBF742FD204610210022FBF7BF
:1050D0003DFD0DF10301304601226423FCF774FB12
:1050E000204610210122FBF731FD30208DF803000E
:1050F000284601210122FBF729FD2046102100222C
:10510000FBF724FD0DF10301304601226423FCF777
:105110005BFB204610210122FBF718FDED208DF8E6
:105120000300284601210022FBF710FD2046102134
:105130000022FBF70BFD0DF1030130460122642331
:10514000FCF742FB204610210122FBF7FFFC28461A
:10515000012101228DF80370FBF7F8FC2046102195
:105160000022FBF7F3FC0DF103013046012264231A
:10517000FCF72AFB204610210122FBF7E7FC032065
:105180008DF80300284601210122FBF7DFFC2046B1
:1051900010210022FBF7DAFC0DF103013046012259
:1051A0006423FCF711FB204610210122FBF7CEFC03
:1051B00012208DF803002846012101224FF0120928
:1051C000FBF7C4FC204610210022FBF7BFFC0DF1C9
:1051D0000301304601226423FCF7F6FA2046102131
:1051E0000122FBF7B3FC81208DF803002846012142
:1051F0000122FBF7ABFC204610210022FBF7A6FCA6
:105200000DF10301304601226423FCF7DDFA20464C
:1052100010210122FBF79AFCE8208DF803002846B4
:1052200001210022FBF792FC204610210022FBF70F
:105230008DFC0DF10301304601226423FCF7C4FA12
:10524000204610210122FBF781FC85208DF8030008
:10525000284601210122FBF779FC2046102100227B
:10526000FBF774FC0DF10301304601226423FCF7C7
:10527000ABFA204610210122FBF768FC28460121E9
:1052800001228DF80380FBF761FC204610210022EB
:10529000FBF75CFC0DF10301304601226423FCF7AF
:1052A00093FA204610210122FBF750FC78208DF85C
:1052B0000300284601210122FBF748FC204610216B
:1052C0000022FBF743FC0DF1030130460122642369
:1052D000FCF77AFA204610210122FBF737FCCB209D
:1052E0008DF80300284601210022FBF72FFC204601
:1052F00010210022FBF72AFC0DF1030130460122A8
:105300006423FCF761FA204610210122FBF71EFC02
:1053100039208DF80300284601210122FBF716FCF5
:10532000204610210022FBF711FC0DF1030130464D
:1053300001226423FCF748FA204610210122FBF7E2
:1053400005FC2C208DF80300284601210122FBF7E3
:10535000FDFB204610210022FBF7F8FB0DF10301B5
:10536000304601226423FCF72FFA20461021012247
:10537000FBF7ECFB2846012101228DF803B0FBF777
:10538000E5FB204610210022FBF7E0FB0DF10301B5
:10539000304601226423FCF717FA2046102101222F
:1053A000FBF7D4FB34208DF80300284601210122AD
:1053B000FBF7CCFB204610210022FBF7C7FB0DF1C9
:1053C0000301304601226423FCF7FEF92046102138
:1053D0000122FBF7BBFB02208DF8030028460121C8
:1053E0000122FBF7B3FB204610210022FBF7AEFBA6
:1053F0000DF10301304601226423FCF7E5F9204654
:1054000010210122FBF7A2FBF7208DF803002846AC
:1054100001210022FBF79AFB204610210022FBF716
:1054200095FB0DF10301304601226423FCF7CCF912
:10543000204610210122FBF789FB4FF02008284667
:10544000012101228DF80380FBF780FB204610210B
:105450000022FBF77BFB0DF10301304601226423A0
:10546000FCF7B2F9204610210122FBF76FFBEA207E
:105470008DF80300284601210022FBF767FB204638
:1054800010210022FBF762FB0DF1030130460122DF
:105490006423FCF799F9204610210122FBF756FB03
:1054A0002846012101228DF803B0FBF74FFB20466F
:1054B00010210022FBF74AFB0DF1030130460122C7
:1054C0006423FCF781F9204610210122FBF73EFB03
:1054D0002846012101228DF803B0FBF737FB204657
:1054E00010210022FBF732FB0DF1030130460122AF
:1054F0006423FCF769F9204610210122FBF726FB03
:10550000C0208DF80300284601210022FBF71EFB76
:10551000204610210022FBF719FB0DF10301304654
:1055200001226423FCF750F9204610210122FBF7E9
:105530000DFB21208DF80300284601210122FBF7F5
:1055400005FB204610210022FBF700FB0DF10301B3
:10555000304601226423FCF737F92046102101224E
:10556000FBF7F4FAC1272846012100228DF80370C9
:10557000FBF7ECFA204610210022FBF7E7FA0DF1C9
:105580000301304601226423FCF71EF92046102156
:105590000122FBF7DBFA2846012101228DF8039056
:1055A000FBF7D4FA204610210022FBF7CFFA0DF1C9
:1055B0000301304601226423FCF706F9204610213E
:1055C0000122FBF7C3FAC5208DF80300284601210C
:1055D0000022FBF7BBFA204610210022FBF7B6FAA7
:1055E0000DF10301304601226423FCF7EDF820465B
:1055F00010210122FBF7AAFA32208DF80300284679
:1056000001210122FBF7A2FA204610210022FBF71C
:105610009DFA0DF10301304601226423FCF7D4F812
:10562000204610210122FBF791FA3C208DF803005F
:10563000284601210122FBF789FA20461021002289
:10564000FBF784FA0DF10301304601226423FCF7D5
:10565000BBF8204610210122FBF778FAC7208DF80D
:105660000300284601210022FBF770FA2046102192
:105670000022FBF76BFA0DF103013046012264238F
:10568000FCF7A2F8204610210122FBF75FFA28461A
:10569000012101228DF80370FBF758FA20461021F2
:1056A0000022FBF753FA0DF1030130460122642377
:1056B000FCF78AF8204610210122FBF747FA362032
:1056C0008DF80300284601210022FBF73FFA20460F
:1056D00010210022FBF73AFA0DF1030130460122B6
:1056E0006423FCF771F8204610210122FBF72EFA03
:1056F000A8208DF80300284601210122FBF726FA95
:10570000204610210022FBF721FA0DF1030130465B
:1057100001226423FCF758F8204610210122FBF7F0
:1057200015FA3A208DF80300284601210022FBF7E4
:105730000DFA204610210022FBF708FA0DF10301B3
:10574000304601226423FCF73FF820461021012255
:10575000FBF7FCF955208DF80300284601210122B2
:10576000FBF7F4F9204610210022FBF7EFF90DF1C9
:105770000301304601226423FCF726F8204610215D
:105780000122FBF7E3F9B1208DF80300284601213F
:105790000022FBF7DBF9204610210022FBF7D6F9A7
:1057A0000DF10301304601226423FCF70DF8204679
:1057B00010210122FBF7CAF92846012101228DF8A8
:1057C00003B0FBF7C3F9204610210022FBF7BEF916
:1057D0000DF10301304601226423FBF7F5FF20465B
:1057E00010210122FBF7B2F918208DF8030028469A
:1057F00001210122FBF7AAF9204610210022FBF724
:10580000A5F90DF10301304601226423FBF7DCFF0B
:10581000204610210122FBF799F9B6208DF80300EC
:10582000284601210022FBF791F920461021002291
:10583000FBF78CF90DF10301304601226423FBF7DD
:10584000C3FF204610210122FBF780F94FF00A0A1E
:105850002846012101228DF803A0FBF777F92046A5
:1058600010210022FBF772F90DF1030130460122ED
:105870006423FBF7A9FF204610210122FBF766F9FC
:10588000A2208DF80300284601210122FBF75EF9D2
:10589000204610210022FBF759F90DF10301304693
:1058A00001226423FBF790FF204610210122FBF721
:1058B0004DF9F2208DF80300284601210022FBF764
:1058C00045F9204610210022FBF740F90DF10301B4
:1058D000304601226423FBF777FF20461021012286
:1058E000FBF734F92846012101228DF803B0FBF7BC
:1058F0002DF9204610210022FBF728F90DF10301B4
:10590000304601226423FBF75FFF2046102101226D
:10591000FBF71CF926208DF8030028460121002200
:10592000FBF714F9204610210022FBF70FF90DF1C7
:105930000301304601226423FBF746FF2046102175
:105940000122FBF703F901208DF80300284601210D
:105950000122FBF7FBF8204610210022FBF7F6F8A6
:105960000DF10301304601226423FBF72DFF204691
:1059700010210122FBF7EAF8E0208DF80300284609
:1059800001210022FBF7E2F8204610210022FBF75C
:10599000DDF80DF10301304601226423FBF714FF0B
:1059A000204610210122FBF7D1F84FF00F092846BD
:1059B000012101228DF80390FBF7C8F82046102141
:1059C0000022FBF7C3F80DF10301304601226423E6
:1059D000FBF7FAFE204610210122FBF7B7F8284614
:1059E000012101228DF80380FBF7B0F82046102139
:1059F0000022FBF7ABF80DF10301304601226423CE
:105A0000FBF7E2FE204610210122FBF79FF81E2043
:105A10008DF80300284601210122FBF797F8204664
:105A200010210022FBF792F80DF10301304601220C
:105A30006423FBF7C9FE204610210122FBF786F8FC
:105A400009272846012101228DF80370FBF77EF813
:105A5000204610210022FBF779F80DF103013046B2
:105A600001226423FBF7B0FE204610210122FBF740
:105A70006DF812208DF803002846012101224FF015
:105A80001208FBF763F8204610210022FBF75EF8AE
:105A90000DF10301304601226423FBF795FE2046F9
:105AA00010210122FBF752F80B208DF80300284645
:105AB00001210122FBF74AF8204610210022FBF7C2
:105AC00045F80DF10301304601226423FBF77CFE0B
:105AD000204610210122FBF739F850208DF80300F1
